:020000040800F2
:10000000E00A0020A9010008433400084D2600083A
:10001000413400080D04000865400008000000009D
:10002000000000000000000000000000ED350008A6
:100030000F04000800000000CF350008EF3500086D
:10004000C3010008C3010008C3010008C301000880
:10005000C3010008C3010008C3010008C301000870
:10006000C3010008C3010008C3010008C301000860
:10007000C3010008C3010008C3010008C301000850
:10008000C3010008C3010008D902000800000000F5
:10009000000000000000000000000000C301000894
:1000A000C3010008C301000895360008C301000819
:1000B000B1360008BD360008C30100085D260008FF
:1000C000512600087526000869260008D135000869
:1000D000C30100085D3B0008C301000800000000E8
:1000E00011040008C3010008C3010008000000005B
:1000F000000000000000000000000000C301000834
:1001000000000000C3010008C3010008C30100088B
:1001100000000000000000000000000000000000DF
:10012000C3010008C3010008C3010008C30100089F
:10013000C3010008000000000000000000000000F3
:10014000000000000000000000000000453400082E
:10015000C3010008C3010008C3010008C30100086F
:10016000C3010008C30100080000000000000000F7
:10017000000000000000000000000000000000007F
:1001800000000000C30100080000000000000000A3
:10019000C3010008DFF80CD000F08CF800480047DD
:1001A000A5400008E00A00200648804706480047AE
:1001B000FEE7FEE7FEE7FEE7FEE7FEE7FEE7FEE717
:1001C000FEE7FEE779360008950100082DE9F05FAB
:1001D0000546002092469B468846064681464024B6
:1001E0001BE0284641464746224600F053F8534656
:1001F0005A46C01A914110D311461846224600F0C3
:100200003AF82D1A67EB01084F46224601200021DB
:1002100000F031F817EB00094E41201EA4F1010453
:10022000DFDC484631462A464346BDE8F09F40EAB7
:1002300001039B0703D009E008C9121F08C0042A64
:10024000FAD203E011F8013B00F8013B521EF9D24B
:100250007047D2B201E000F8012B491EFBD2704773
:100260000022F6E710B513460A4604461946FFF782
:10027000F0FF204610BD202A04DB203A00FA02F1EC
:10028000002070479140C2F1200320FA03F3194384
:1002900090407047202A04DB203A21FA02F0002126
:1002A000704721FA02F3D040C2F120029140084386
:1002B00019467047064C074D06E0E06840F0010320
:1002C00094E8070098471034AC42F6D3FFF766FF76
:1002D000F840000818410008014800F047B9000044
:1002E00010000020464910B54A6822F440324A60A6
:1002F0004A6843681A434A6001684A6822F4807277
:100300004A6001684A68036942EA03224A60016858
:100310004A6822F040724A6001684A6883681A435A
:100320004A6001688A6822F400628A6001688A680B
:10033000C3681A438A60816A6FF07062D1420168B3
:100340008A6822F070628A6001688A680CD0836AC9
:100350001A438A6001688A6822F040528A60016804
:100360008A68C36A1A4301E022F040528A60016839
:100370008A6822F002028A6001688A68037E42EA83
:1003800043028A6090F82010002901684A680FD063
:1003900042F400624A6001684A6822F460424A609E
:1003A00001684A68174C436A04EB43331A4301E07F
:1003B00022F400624A600168CA6A22F47002CA62CA
:1003C0000168CA6A838B104C04EB03531A43CA6258
:1003D00001688A6822F400728A6001688A6890F86D
:1003E000303042EA43228A6001688A6822F48062DF
:1003F0008A6001688A68406942EA8020886010BD8E
:100400000023014000E0FFFF0000F0FFFEE770471F
:100410004FF4805000F0D6B97047704778B500248B
:10042000009490F83C20012A19D0012280F83C2049
:100430000A6807230568092A13D9EE680A3A02EB0D
:10044000420293409E43EE600B788A680A3B03EBBE
:1004500043039A400368DD682A43DA6010E0022013
:1004600078BD2E6902EB420293409E432E610B78C9
:100470008A6803EB43039A4003681D692A431A61A3
:100480004A681F23072A13D205686E6B521E02EBBF
:10049000820293409E436E630B790A885B1E92B280
:1004A00003EB83039A4003685D6B2A435A6327E09A
:1004B00005680D2A12D22E6BD21F02EB82029340E6
:1004C0009E432E630B790A88DB1F92B203EB8303F2
:1004D0009A4003681D6B2A431A6311E0EE6A0D3AD5
:1004E00002EB820293409E43EE620B790A880D3B39
:1004F00092B203EB83039A400368DD6A2A43DA620F
:10050000164B0568144A9D4206D10D68122D03D181
:10051000556845F48005556005689D4218D10B6803
:10052000102B01D0112B13D1536843F400035360F7
:10053000096810290CD10A490A4A0968B1FBF2F18D
:1005400001EB8101490000E0491E00910029FBD127
:1005500080F83C40002078BD00230140002001408D
:100560000C00002040420F007047704770B50446F1
:10057000006801684268C1F34001C2F3401251B300
:100580004AB3216CC90603D4216C41F40071216483
:10059000816811F0405F17D1217EA9B9C16A11F4B9
:1005A000700F02D0816849050ED4416821F0200106
:1005B0004160206C20F480702064206CC00403D45F
:1005C000206C40F0010020642046FFF7CDFF216839
:1005D0006FF012000860206801684268C1F3800172
:1005E000C2F3C01289B382B3216CC90603D4216C53
:1005F00041F400512164816811F4401F1ED1816BC8
:1006000011F4401F02D08168490517D4416849059B
:1006100014D4816811F0405F10D1217E71B9416816
:1006200021F080014160206C20F480502064206C17
:10063000C00503D4206C40F0010020642046FFF781
:10064000ECFE21686FF00C000860206801684268C9
:1006500011F0010FC2F380120ED06AB10068C0071A
:100660000AD0206C40F480302064204600F046F828
:1006700021686FF001000860206801684268C1F3DA
:100680004011C2F3806200290DD0002A0BD0616CAA
:1006900041F0020161646FF0200505602046FFF71C
:1006A00064FF2068056070BD70B504004FF0000560
:1006B00003D0206C002610B107E0012070BD204659
:1006C00000F01EF8666484F83C60206CC00610D40C
:1006D000206C20F4885040F0020020642046FFF790
:1006E00001FE6664206C20F0020040F001002064EE
:1006F00000E0012584F83C60284670BD704700008A
:1007000010B586B0044614216846FFF7A9FD1549C7
:100710002068884224D114480021026842F4807283
:100720000260006800F4807005900F481438026879
:1007300042F001020260006800F001000590102004
:1007400000900320CDE901016946084800F046F811
:1007500000221146122000F055FC122000F044FC4B
:1007600006B010BD002001404438024000000240A5
:1007700090F83510022903D080214165012070478F
:10078000052180F835100068016821F00101016041
:100790000020704790F835007047000070B504469F
:1007A00000F0ECF80546601C02D0044800780444D0
:1007B00000F0E4F8401BA042FAD370BD0000002016
:1007C00070470000044910B50A68024202D0086070
:1007D000FFF7F6FF10BD0000143C01402DE9F84F73
:1007E00000224FF0010803254FF00F0E0B6808FAA6
:1007F00002F42340A34271D14E68012E05D0022E8F
:1008000003D0112E01D0122E15D18668570005FA9B
:1008100007FC26EA0C06D1F80CC00CFA07FC4CEADF
:10082000060CC0F808C04668A6430C79C4F300144F
:10083000944034434460C668570005FA07FC8C684E
:1008400026EA0C06BC403443C4604C68022C01D03C
:10085000122C13D1D40800EB8404A346D4F82090C2
:1008600054074FEAD46A0EFA0AF629EA06090E6915
:1008700006FA0AF646EA0906CBF8206004680E7903
:1008800024EA0C0406F00306BE40264306604C68CA
:10089000E40056D52E4C266846F48046266024682F
:1008A00022F0030604F4804400942A4C3444A44605
:1008B000D4F808489607370F0EFA07F6B443264EC9
:1008C000B04201D1002615E0244EB04201D10126EC
:1008D00010E0234EB04202D102260BE031E0214E5F
:1008E000B04201D1032605E01F4EB04201D10426DB
:1008F00000E00726BE402643CCF808681B4E34684B
:100900004F689C43FF0300D51C433460174E361DCF
:1009100034684F689C43BF0300D51C433460134EBA
:10092000083634684F689C43FF0200D51C4334608E
:100930000E4E0C3634684F689C43BF0200D51C43F2
:100940003460521C102AFFF451AFBDE8F88F00004C
:1009500044380240003001400000024000040240E0
:1009600000080240000C024000100240003C014020
:100970000AB1816170470904FBE700000148806803
:100980007047000000000020704770472DE9F041DB
:10099000016804464A694E6890F83E000025D74336
:1009A000FA0506D4F243D20503D46FF48072012510
:1009B0004A61B90508D4F143C90505D422686FF42A
:1009C000007145F002055161790525D4F143C9054F
:1009D00022D4638D94F83D10226B202808D13BB9B6
:1009E000212910D029290ED0282901D1212A0AD065
:1009F00022686FF48061516145F00405102806D02B
:100A0000402804D008E0204602F088F904E020687D
:100A1000016841F400710160380508D4F043C00555
:100A200005D421686FF4006045F008054861002D89
:100A300007D0206C284320642046BDE8F04101F037
:100A400063BEBDE8F0812DE9F041026800245168E1
:100A5000C56A90F83E3090F83D60102B1CD0402BBA
:100A60001AD0036C002B7ED053694FF02805DB436E
:100A70009F0779D4CF43BF0576D4016C01B1946947
:100A800090F83D3000219D430B467FD0C91E516137
:100A900080F83C30BDE8F081946953694FF42A072F
:100AA000DB435FEAC37C4FF02A4604D0BD42F1D05D
:100AB000B542EFD010E0CD43AD050DD4C16AB942C7
:100AC00001D1012103E0C16AB14201D10821C16213
:100AD000BDE8F04102F0A6B81D0716D4CD43AD0520
:100AE00013D4416CC9B21161416B11B9826B002AF8
:100AF000D0D0C96B19B9816BC96B0029CAD0006805
:100B0000416841F400614160C4E79D0706D4CD43CC
:100B1000AD0503D4BDE8F04101F0F8BFE4435268ED
:100B200064074FEA025215D4002AB3DB1A0608D430
:100B3000CA43520505D45A0705D5BDE8F04101F076
:100B400089BF5A07A6D4C9438905A3D4BDE8F0419B
:100B500001F036BF002A9DDB5A060CD4CA43520569
:100B600009D45A0702E00FE023E00FE005D5BDE805
:100B7000F04101F0DCBE5A078CD4C943890589D401
:100B8000BDE8F04101F06ABE94696DE7556825F44F
:100B900080655560E243540700D50121120601D556
:100BA000828900E0028B80F83C3092B2FFF7EDFEC4
:100BB00070E7DC0606D4CC43A40503D4BDE8F041BD
:100BC00002F0EEB8212E27D0292E25D05C0655D470
:100BD000CC43640552D45B0752D590F83D10438D49
:100BE000002B91D01269436A1A70426A521C426209
:100BF000428D521E4285428D002A85D12A29D7D1A5
:100C000001684A6822F480624A602221016380F808
:100C10003D5000F08DF93DE71C0623D4CC4364051C
:100C200020D45B0720D590F83D10438D002BBFD01A
:100C3000436A1B781361426A521C4262428D521E03
:100C40004285428D002AB3D12929B1D101684A6871
:100C500022F480624A602121016380F83D5000F057
:100C600068F917E75B07A3D4C9438905A0D4418D70
:100C700000299DD0416A097811610AE05B0797D489
:100C8000C943890594D4418D002991D01169426AE4
:100C90001170416A491C4162418D491E4185F9E646
:100CA0007047000070B5040025D094F83D00002581
:100CB00020B984F83C50204600F0BEF8242084F887
:100CC0003D002068016821F0010101602068016891
:100CD00041F4004101602068016821F40041016095
:100CE00000F056FD4D4A6168914201D84C4900E040
:100CF0004C49884201D2012070BD4B492368B0FBAA
:100D0000F1F15E6826F03F060E435E606368934231
:100D100006D94FF4967359434FF47A73B1FBF3F14C
:100D20002368491C1E6A26F03F0631431962616838
:100D3000914210D84900401EB0FBF1F2521CC2F3A0
:100D40000B02042A01D2042022E0B0FBF1F0401C87
:100D5000C0F30B001CE0A268F2B301EBC10303EB8C
:100D60000116431EB3FBF6F35B1C43F480431B05E3
:100D700049D092B301EBC10202EB0111401EB0FB5E
:100D8000F1F0401CC0F30B0040F4804040F4004000
:100D90002168CA694CF6FF739A431043C861D4E9CD
:100DA000071001432068026822F0C002114301606D
:100DB000D4E9030101432068826848F2FF339A4373
:100DC00011438160D4E9050108432168CA6822F013
:100DD000FF021043C86001E00EE016E020680168E1
:100DE00041F0010101602564202084F83D00256365
:100DF00084F83E50002070BD01EB4106431EB3FB5A
:100E0000F6F35B1CB3E70120C2E701EB4101401E92
:100E1000B0FBF1F0401CC0F30B00B7E7A086010067
:100E200080841E0000093D0040420F00704770475B
:100E300070477047704700002DE9F04186B00446C6
:100E400014216846FFF70CFA2368364CDFF8D0C04F
:100E50003449122501260327042233481034634500
:100E600025D10B6843F002030B600968049201F07E
:100E70000201059139028DE8E2006946FFF7AEFCF8
:100E8000206840F4001020602068002200F4001068
:100E9000059011461F2000F0B5F81F2000F0A4F8BF
:100EA00000221146202000F0ADF8202033E0DFF8CA
:100EB0007CC0634531D10B6843F002030B600968C5
:100EC000049201F0020105914FF480618DE8E20087
:100ED00069468046FFF782FC08208DE8E100092082
:100EE000049069464046FFF779FC206840F4800092
:100EF00020602068002200F4800005901146212027
:100F000000F080F8212000F06FF800221146222026
:100F100000F078F8222000F067F806B0BDE8F08114
:100F200000540040303802400004024000580040A5
:100F300070477047024881680278114481607047A9
:100F4000000000200B4810B5016841F400710160F9
:100F5000016841F480610160016841F480710160C1
:100F6000032000F06FF8002000F006F800F024F8ED
:100F7000002010BD003C024070B50D4D04464FF4FA
:100F80007A712878B1FBF0F00A490968B1FBF0F0FA
:100F900000F0F8FE48B9102C07D200222146501E5E
:100FA00000F030F800206C6070BD012070BD0000C2
:100FB000000000200C0000200A4808B5016841F438
:100FC00080410160006800F4804000900548001FE7
:100FD000016841F080510160006800F0805000908D
:100FE00008BD000044380240002809DB00F01F0261
:100FF000012191404009800000F1E020C0F800117B
:1010000070470000F0B40E4B1B680C46C3F302237C
:10101000C3F10705042D00D90425191D072901D2A4
:10102000002300E0DB1E012606FA05F1491E2140DF
:1010300099409E40761E16403143F0BC03F013B831
:101040000CED00E0064900F0070208684FF6FF03C8
:10105000184040EA0220034A10430860704700002D
:101060000CED00E00000FA057047704770477047CC
:10107000704700002DE9FC5F05680446284602F031
:1010800016FF00287ED1206802F03DFF002879D0AD
:10109000206802F038FF800704D52068416901F01C
:1010A00002014161206802F02EFF010304F5717016
:1010B0004FF0010A4FF0080B009075D5002620680C
:1010C00002F000FF0746DFF808946BE0F80767D0EE
:1010D000F1B2206802F00FFF8046C00707D005EB91
:1010E0004611C1F808AB3146204602F0B1F95FEA7B
:1010F000087032D52068016C00EB46100191D0F8E1
:10110000081B2269012A019A0FD0F24B9A4214D18E
:10111000090403D54FF40041C0F8081B204600F035
:1011200094FA206901280FD013E04A4505D9090433
:1011300003D54FF40041C0F8081B204600F085FAA3
:1011400001984845EDD804E020680121009A02F09A
:1011500053FE05EB4611C1F808BB5FEAC86004D531
:1011600005EB46111020C1F8080B5FEA88600ED528
:101170002069012804D120680121009A02F03CFE78
:10118000202100E0A1E105EB4610C0F8081B5FEA52
:10119000884005D505EB46104FF40051C0F8081BF8
:1011A0007F08761C002F91D1206802F0ACFE40032E
:1011B0004FF000095FD5206802F07DFE074600264B
:1011C00057E0F80753D0F1B2206802F082FE804663
:1011D000C00726D006F00F020AFA02F0D5F834282C
:1011E0008243C5F8342805EB4610C0F808A92069E9
:1011F000012807D1C6EBC60004EB8000D0E911211D
:1012000011448164F1B22046FFF730FF20690128C4
:1012100007D136B9206D20B920680121009A02F06B
:10122000EBFD5FEA087003D505EB4611C1F808B97C
:101230005FEAC86004D505EB46111020C1F8080923
:101240005FEA486004D505EB46104021C0F8081954
:101250005FEA887004D505EB46100221C0F8081932
:101260005FEA086003D53146204602F05FF97F0847
:10127000761C002FA5D1206802F045FE002811DA67
:10128000D5F8040820F00100C5F8040894F8F40328
:1012900001282BD0204600F0D6F92068416901F0E2
:1012A00000414161206802F02EFE00050BD5D5F803
:1012B0000808C00702D0204600F0C8F9206841693C
:1012C00001F400614161206802F01DFEC00461D597
:1012D000D5F8040820F00101C5F804181021206891
:1012E00002F0C6FD00214FF67F321AE084F8F49335
:1012F00000212046FFF7B8FECFE700BF05EB411005
:10130000C0F80829D0F8003923F40013C0F80039D8
:10131000C0F8082BD0F8003B23F40013C0F8003BC2
:10132000491C60688842E9D8D5F81C0840F00111D2
:10133000C5F81C18206B002828460DD0D0F884086A
:1013400040F00B00C5F88408D5F8440840F00B01C4
:101350002846C5F844180DE0D0F8140842F22B01D5
:101360000843C5F81408D5F8100840F00B012846CA
:10137000C5F81018D0F8000820F4FE61C5F8001870
:10138000217C2068009A02F037FD2068416901F451
:1013900080514161206802F0B6FD800415D52068B7
:1013A00002F0E2FB206802F075FDE06000F0EAF96F
:1013B0000146227B206802F0CFFD204600F042F972
:1013C0002068416901F400514161206802F09BFDF1
:1013D000C00634D52068816921F0100181612F6A2F
:1013E00007F00F00C0EBC00004EB8006C7F34340DA
:1013F00006F5FE76022802D0062811D01AE047F63C
:10140000F070074216D0C7F30A1217462846F16853
:1014100002F07DFDF0683844F060B069384408E0BF
:1014200008222846009902F072FDB069C7F30A113C
:101430000844B0612168886940F010008861206824
:1014400002F061FD000707D5204600F0FDF8216895
:10145000486900F008004861206802F054FDC002AD
:1014600008D50021204600F037F82168486900F4CB
:1014700080104861206802F046FD800208D50021F6
:10148000204600F02AF82168486900F400104861FD
:10149000206802F038FD400007D52046FFF7E5FD43
:1014A0002068416901F080414161206802F02BFD14
:1014B00040070AD520684568680702D52046FFF72F
:1014C000D7FD2068416829434160BDE8FC9F0000CA
:1014D0000A30544F0A31544F704770472DE9F0419C
:1014E0008AB0040005D094F8BD032668002520B119
:1014F00008E001200AB0BDE8F08184F8BC53204622
:1015000000F05EF8032084F8BD03F06BC00500D442
:101510002561206802F06AFC04F110012822884647
:101520006846FEF784FE94E80F0002F037FB0226BF
:10153000C8BB0021206802F0F8FC002001270EE063
:10154000C0EBC00104EB810181F83D7001F83C0F54
:10155000C880CD708D60CD60401CC0B24D616168A7
:101560008142EDD8002011E0C0EBC00104EB810105
:1015700081F8FD5181F8FC0181F8FF51C1F8045256
:10158000C1F80852401CC0B2C1F8105261688142D3
:10159000EAD8282241466846FEF749FE94E80F0043
:1015A00002F05EFB10B184F8BD63A2E784F8385006
:1015B00084F8BD73206802F047FB00209AE7000022
:1015C00010B586B0044614216846FEF749FE20682F
:1015D000B0F1A04F2FD119480021026842F001025A
:1015E0000260006800F0010005904FF4C0500090C8
:1015F0000220CDE90101032003900A2004906946EE
:101600000F48FFF7EBF80D48001D016841F080011D
:1016100001600A481430016841F4804101600068AB
:10162000002200F48040059011464320FFF7EAFCB9
:101630004320FFF7D9FC06B010BD0000303802404F
:1016400000000240704770477047704770470000C5
:101650002DE9F0470E46050065D0DFF81481D8F873
:101660000000F7B200F00F00B04207D288F8007017
:10167000D8F8000000F00F00B04254D128683D4C6B
:10168000810712D5400703D5206840F4E050206060
:101690002878000703D5206840F460402060206867
:1016A000A96820F0F000084320602878C0072DD0FA
:1016B000304968680839012812D0022813D003285D
:1016C00011D00968890700292DDA216821F003016A
:1016D00001432160FFF752F9814641F2883A0EE05A
:1016E00009688903EFE709688901ECE7FFF746F924
:1016F000A0EB0901514502D90320BDE8F08720681D
:10170000696800F00C00B0EB810FEFD1D8F8001041
:10171000404601F00F01B14207D90770006800F0A0
:101720000F00B04201D00120E7E72878400705D537
:101730002068E96820F4E05008432060287800071A
:1017400006D52068296920F4604040EAC100206085
:1017500000F03EF82168084AC1F30311515CC8400B
:101760000649086006480068FFF706FC0020C4E749
:10177000003C024008380240DE4000080C00002017
:101780000400002001480068704700000C000020A1
:101790000448054900680968044AC1F38221515C84
:1017A000C84070470C00002008380240EE40000896
:1017B0000448054900680968044AC1F34231515C94
:1017C000C84070470C00002008380240EE40000876
:1017D000154810B5006810F00C02144813D04110E1
:1017E000042A0FD0082A0ED10F4C241F2268236828
:1017F00002F03F025B0207D52068C0F38810A0FB0F
:10180000010106E0084610BD2168C1F38811A1FB63
:1018100000010023FEF7DAFC2168C1F30141491CF5
:101820004900B0FBF1F010BD083802400024F4007C
:101830002DE9F84F040076D02078DFF838A3CE4D9C
:10184000C00749D0DAF800105046C1F381010129E0
:1018500008D00068C0F3810002280AD1281D006862
:10186000400206D52868800336D560680028E2D09B
:1018700032E06068B0F5803F10D0B0F5A02F286846
:1018800010D020F480302860286820F48020286060
:101890006068A0B1FFF772F806460CE0286840F4D3
:1018A0008030F4E740F480202860F7E7FFF766F81F
:1018B000801B642873D828688003F7D50CE0FFF7F5
:1018C0005DF8064605E000BFFFF758F8801B642866
:1018D000F0D828688003F7D42078DFF8A08280074A
:1018E0004FF000093ED5DAF80010504611F00C0F09
:1018F00009D00068C0F3810002280BD19D48001F69
:101900000068400206D42868800715D5E0680128E1
:1019100009D111E0E068B8B10120C8F80000FFF774
:101920002DF8064605E020E1FFF728F8801B022885
:10193000C0D828688007F7D52868216920F0F8000A
:1019400040EAC10028600DE0C8F80090FFF716F8E3
:10195000064604E0FFF712F8801B02281FD828680B
:101960008007F7D42078000722D5824E8448616929
:101970006C3671B101210160FFF700F8074604E001
:10198000FEF7FCFFC01B022809D830688007F7D596
:101990000EE0C0F80090FEF7F1FF074605E082E098
:1019A000FEF7ECFFC01B02287DD830688007F7D413
:1019B0002078400768D5DFF8BCB100270BF1380B61
:1019C000DBF80000C0000BD4DBF8001041F08051C0
:1019D000CBF80010DBF80000012700F080500090E9
:1019E000684E3068C00510D4306840F480703060B4
:1019F000FEF7C4FF009005E0FEF7C0FF0099401A13
:101A0000022850D83068C005F6D55A4EA06868360E
:101A100001280FD00528306810D020F00100306078
:101A2000306820F004003060A068B8B1FEF7A6FF6F
:101A300000900FE0306840F00100F4E740F004004F
:101A40003060F7E7FEF79AFF0099411A41F28830BB
:101A5000814266D830688007F4D50EE0FEF78EFF2D
:101A6000009007E0FEF78AFF0099411A41F28830A2
:101A7000814256D830688007F4D42FB1DBF80010CB
:101A800021F08051CBF80010A069D0B3DAF8002023
:101A90005146C2F38102022A4AD00228484607D0A2
:101AA000C8F8600000E03CE0FEF768FF04463BE059
:101AB0004746C8F86000FEF761FF064605E000BF34
:101AC000FEF75CFF801B02282BD828688001F7D422
:101AD000D4E907010843A16A2B4A490802EB0141F6
:101AE000626A41EA8211084394F82C1040EA0161CD
:101AF0002048001F016001203866FEF73FFF0446C2
:101B000005E034E0FEF73AFF001B022809D82868F8
:101B10008001F7D52BE000BFFEF730FF001B022845
:101B200002D90320BDE8F88F28688001F4D41EE0B4
:101B30000128F7D00868E26900F48001914214D1CD
:101B4000226A00F03F0191420FD147F6C071626AEC
:101B50000140914209D1A26A00F44031914204D17E
:101B6000E16A00F07060884201D00120DAE70020CD
:101B7000D8E7000008380240003802400000474221
:101B8000800E4742007000400000FFFF70470000D9
:101B900038B5016804464A688868C043430606D5DC
:101BA000C30704D1D3435B0601D4216C05E083074E
:101BB00008D4D3431B0605D4616C01B02046BDE8B0
:101BC00030400847830603D5430601D5C30551D4E9
:101BD000D3439B064ED443060AD494F85130032BCA
:101BE00049D0636D43F004036365CB688B68009351
:101BF000830609D4636D43F0010363658B6800932A
:101C00000B6823F040030B60C00506D4606D40F004
:101C100008006065206880680090606D002829D009
:101C20002068416821F0E0014160012084F8510002
:101C3000900701D4D00722D02068416821F0030129
:101C40004160114DE06C40B10565E06CFEF790FD20
:101C500018B1606D40F040006065A06C002809D0AC
:101C60000565A06CFEF784FD002803D0606D40F090
:101C70004000606538BDC8688868009038BD20465F
:101C8000FFF784FF38BD0000DD35000870B50400A3
:101C900005D00025A56294F8510010B106E001209E
:101CA00070BD84F85050204600F030F8022084F8CF
:101CB00051002068016821F040010160D4E9010170
:101CC0000843D4E903121143084361690843218B97
:101CD00001F400710843E1690843216A0843A16ADD
:101CE000084321680860A069042101EA1040616A84
:101CF0000843216848602068C16921F40061C1611E
:101D00006565012084F85100002070BD10B586B0D3
:101D1000044614216846FEF7A3FA17492068884252
:101D200028D116480021026842F4805202600068FF
:101D300000F48050059011481438026842F0010206
:101D40000260006800F001000590E0200090022091
:101D5000CDE901010320039005200490694608485D
:101D6000FEF73CFD002211462320FFF74BF923200C
:101D7000FFF73AF906B010BD003001404438024088
:101D80000000024010B5401EB0F1807F01D3012059
:101D900010BD4FF0E02460610F21601702F063F97D
:101DA0000020A06107202061002010BD704770470F
:101DB00010B590F83C20012A22D0012280F83C2066
:101DC000CA688C6822F4407222434C6822F4806214
:101DD00022430C6822F4006222430C6922F48052F0
:101DE00022434C6922F400522243C969002322F4A1
:101DF00080420A4301684A6480F83C30002010BDEC
:101E0000022010BD70B590F83C20012A2CD001248E
:101E100080F83C40022280F83D2003685A689D68A3
:101E200022F070060A6832435A60104B02689A42E8
:101E30000ED0B2F1804F0BD00D4B9A4208D00D4B13
:101E40009A4205D00C4B9A4202D00C4B9A4204D1D4
:101E5000496825F080031943916080F83D400021D6
:101E600080F83C10084670BD022070BD00000140A3
:101E70000004004000080040000C00400040014009
:101E800010B5040003D094F83D0010B107E0012024
:101E900010BD002084F83C00204600F00DF8022020
:101EA00084F83D00211D206801F00EFC012084F81B
:101EB0003D00002010BD000008B51B4A01681B480A
:101EC000914207D1016841F001010160006800F012
:101ED00001000CE0B1F1804F14D0154A914222D19B
:101EE000016841F480210160006800F48020002234
:101EF000009011461A20FFF785F81A20BDE8084027
:101F0000FFF772B80948001F016841F00101016044
:101F10000068002200F00100009011461C20FFF72D
:101F200071F81C20EAE708BD000001404438024077
:101F30000048014070B5044690F83C00012817D0D5
:101F4000012584F83C50022084F83D002068826816
:101F500022F0770222F47F4282600868502830D055
:101F60000DDC20284DD005DC98B310283BD148E08B
:101F7000022070BD302844D0402834D139E0602898
:101F800028D0702806D0B0F5805F2CD0B0F5005F67
:101F900029D10AE0CB68D1E90121206801F0E0FBFA
:101FA0002068816841F0770109E0CB68D1E901211F
:101FB000206801F0D5FB2068816841F48041816090
:101FC00011E0CA684968206801F07EFC5021206851
:101FD00007E016E0CA684968206801F086FC6021C5
:101FE000206801F0C7FB84F83D50002084F83C00D5
:101FF00070BDCA684968206801F066FC402120680D
:10200000EFE7226801461046EBE72DE9F0410D4667
:10201000040003D094F83D0018B108E00120BDE8A9
:10202000F081002084F83C00204600F03BF80220BC
:1020300084F83D002068816844F207029143816082
:10204000211D206801F040FB226890689169166AA2
:102050002B68AF69034340F20330814341EA072113
:10206000A868EF6908434FF6FC418843E96840EAF5
:102070000720014328692F6A000140EA073008431E
:1020800069686D6926F0AA0646EA0515294393603A
:102090002268906120680162012084F83D000020E0
:1020A000BDE7000070B586B0044614216846FEF70F
:1020B000D7F82649244E25680023244A10390224E3
:1020C0002348B54222D1156845F002051560126813
:1020D00002F0020205920A6842F002020A600968F0
:1020E00001F00201059130210091CDE90143CDE9D4
:1020F00003346946FEF772FB002211461D20FEF7ED
:1021000081FF1D20FEF770FF06B070BD114EB54275
:10211000FAD1156845F004051560126802F0040252
:1021200005920A6842F002020A60096801F00201A1
:102130000591C0210091CDE90143CDE90334694601
:10214000FEF74CFBE0E7000000040040403802408E
:102150000004024000080040704770B50446006863
:1021600001694FF00005C943890715D4C168C94307
:10217000890711D4E91E0161012020772068806958
:102180008007204602D0FFF7E7FF04E000F0D8F810
:10219000204600F05AF9257720680169C9434907AC
:1021A00017D4C168C943490713D46FF00401016112
:1021B000022020772068806910F4407F204602D0FA
:1021C000FFF7CAFF04E000F0BBF8204600F03DF93D
:1021D000257720680169C943090716D4C168C94336
:1021E000090712D46FF008010161042020772068EC
:1021F000C0698007204602D0FFF7AEFF04E000F080
:102200009FF8204600F021F9257720680169C9432D
:10221000C90617D4C168C943C90613D46FF01001A9
:102220000161082020772068C06910F4407F2046B3
:1022300002D0FFF791FF04E000F082F8204600F0A2
:1022400004F9257720680169C943C90708D1C16825
:10225000C943C90704D1891E0161204600F0F6F880
:1022600020680169C943090609D4C168C943090640
:1022700005D46FF0800101612046FFF797FD2068CB
:102280000169C943490609D4C168C943490605D44F
:102290006FF040010161204600F0D9F82068016923
:1022A000C94389060BD4C168C943890607D46FF0B6
:1022B000200101612046BDE87040FFF778BD70BD88
:1022C00030B587B0044614216846FDF7C9FF24687D
:1022D000174D0021174802220123AC4210D1046897
:1022E00044F002040460006800F00200059010034E
:1022F0000090CDE90121CDE9031369460E4812E0B3
:10230000B4F1804F11D1046844F001040460006806
:1023100000F0010005900F200090CDE90121CDE9EA
:10232000031369460548FEF759FA07B030BD0000AF
:10233000000001403038024000040240000002402A
:10234000704770B5044690F83C000D4601280DD04A
:10235000012684F83C60022084F83D0042B1042A42
:1023600018D0082A2AD00C2A4DD139E0022070BD9D
:10237000206801F007FA2068816941F00801816155
:102380002068816921F004018161206881692A69DE
:10239000114311E0206801F01DFA2068816941F4C1
:1023A000006181612068816921F480618161206818
:1023B00081692A6941EA0221816124E0206801F0F3
:1023C00035FA2068C16941F00801C1612068C1691E
:1023D00021F00401C1612068C1692A69114311E03B
:1023E000206801F04FFA2068C16941F40061C161C1
:1023F0002068C16921F48061C1612068C1692A69CE
:1024000041EA0221C16184F83D60002084F83C006B
:1024100070BD10B5040003D094F83D0010B107E082
:10242000012010BD002084F83C00204600F00CF88C
:10243000022084F83D00211D206801F045F90120AB
:1024400084F83D00002010BD70477047704770470A
:102450007047000070B5026804461068D16853697F
:1024600010F00F0F53D003F0010501F490762E43C6
:102470005FD0C20705D0CA0503D5E26B42F0010266
:10248000E263420705D5DA0703D0E26B42F00202AD
:10249000E263820705D5DA0703D0E26B42F004025B
:1024A000E263020707D501F020022A4303D0E26B62
:1024B00042F00802E263E26B002A34D0800604D5C1
:1024C000880602D5204601F038FA20684069E16BA1
:1024D000C0F3801001F008010143204624D001F030
:1024E0001EFA2068416949061AD5416921F0400168
:1024F0004161606BA0B11B490165606BFEF738F963
:10250000002810D0606B016DBDE87040084783065D
:102510000FD58B060DD52046BDE8704001F00DBAF1
:102520002046FFF795FF70BDFFF792FF0020E063A4
:1025300070BD030606D50B0604D52046BDE87040E5
:1025400001F0DABA4006F3D54806F1D5D168204645
:1025500021F04001D160202184F8391000F075F895
:1025600070BD00000F39000870B5040004D094F865
:102570003900002510B106E0012070BD84F8385004
:10258000204600F023F8242084F839002068C16830
:1025900021F40051C160204601F01AFA2068016957
:1025A00021F4904101612068416921F02A014161D3
:1025B0002068C16841F40051C160E563202084F8BF
:1025C000390084F83A00002070BD000010B586B0D4
:1025D000044614216846FDF743FE184920688842E6
:1025E00029D11748016841F010010160006800F02E
:1025F0001000059012481438016841F00101016093
:102600000068694600F0010005904FF4C06000903A
:1026100002200190012002900320039007200490E3
:102620000848FEF7DBF8002211462520FEF7EAFCF9
:102630002520FEF7D9FC06B010BD000000100140B7
:10264000443802400000024070477047FEE7000037
:102650000148FEF79BB90000580000200148FEF732
:10266000F2B90000580000200148FEF78FB90000C1
:10267000AC0000200148FEF7E6B90000AC000020E5
:1026800010B5806B90F83D20436B002103B1D963F6
:10269000836B03B1D96303681C6824F480641C60F5
:1026A0004185436B03B11965836B03B119650368F9
:1026B0001C6824F001041C6090F83D402023602C2D
:1026C0000BD0282434EA02020FD080F83D3080F885
:1026D0003E1000BFFEF7E4FA10BD80F83D3080F8F0
:1026E0003E100164FEF750F910BD0268136843F014
:1026F000010313600268136843F48063136001638D
:1027000080F83D40E6E7000070B5044690F83D00D3
:1027100094F83E10102906D1222804D121680A68B5
:1027200022F400620A60282131EA00024FF000051D
:102730004FF0200626D021684968090503D4602897
:1027400001D084F83D60256384F83E5020684168DC
:10275000090537D5416821F400614160606B90F84C
:1027600035203C49012A11D00165606BFEF700F865
:1027700038B32068016821F00101016084F83D60F0
:10278000606B1CE0256384F83D10DFE7A06B0165FA
:10279000A06BFDF7EDFFA0B120684169C943490670
:1027A00005D40069616A0870606A401C6062206834
:1027B000016821F00101016084F83D60A06B016DAA
:1027C000884710E094F83D10602910D04169C94352
:1027D000490605D40069616A0870606A401C60623D
:1027E0002046FEF75DFA206CC1071CD115E084F885
:1027F0003D6025644169C943490605D40069616AA1
:102800000870606A401C60622068016821F0010164
:1028100001602046FEF7B8F8E5E7810703D44107D9
:1028200001D4000704D52068416821F4E0614160CB
:1028300094F83D00216C49070BD5282809D106489A
:10284000E062256384F83D6084F83E502046FEF740
:10285000EDFA70BD812600080000FFFF10B5C26AC6
:10286000438D0168042B06D0438D032B08D0438D84
:10287000022B1DD012E04A6822F480624A600CE00C
:102880004B6823F480634B60042A06D0022A04D0EC
:1028900001680A6822F480620A6001680969426A74
:1028A0001170416A491C4162418D491E418510BD2C
:1028B000012A30D0102A2ED0042A30D0022A2ED05D
:1028C0000A6842F400720A6001680969426A11707C
:1028D000416A491C4162428D521E4285026812695A
:1028E0000A70416A491C4162418D491E4185016857
:1028F0004A6822F440724A60202180F83D1090F826
:102900003E200021402A80F83E100CD012210163A5
:10291000FEF78DFA10BD0A6822F48062D3E70A68D8
:1029200042F48062CFE70163FEF783FA10BD10B571
:1029300090F83D10222914D1418D032912D9016844
:102940000969426A1170416A491C4162418D491E00
:102950004185418D032904D10068416821F48061DB
:10296000416010BDC26A022AFBD0012901D00029B2
:10297000F7D101680A6822F480620A6001684A6837
:1029800022F4E0624A6001680969426A1170416A92
:10299000491C4162418D491E4185202180F83D102E
:1029A00090F83E200021402A80F83E1004D01221E9
:1029B0000163FEF73CFA10BD0163FEF73AFA10BD61
:1029C00010B5C26A90F83D10212907D090F83E104A
:1029D00040290FD1BDE8104000F06AB9418D51B1D6
:1029E000416A026809781161416A491C4162418D5E
:1029F000491E418510BD20230021082A13D0202A1A
:102A000011D012F5803F0ED00268546824F4E064BF
:102A100054601122026380F83E1080F83D3000BF00
:102A2000FEF706FA10BD0268546824F4E0645460AE
:102A30000268146844F400741460016380F83D3047
:102A400090F83E2080F83E10402AE9D1FEF7F2F9D6
:102A500010BD000010B590F83D1090F83E30C26AED
:102A6000048DB4B1212903D0402B11D122290FD1DB
:102A7000418DE1B390F83E10402942D0416A02688E
:102A800009781161416A491C4162418D491E4185A5
:102A900010BD2129E8D120230021082A13D0202AA3
:102AA00011D012F5803F0ED00268546824F4E0641F
:102AB00054601122026380F83E1080F83D3000BF60
:102AC000FEF7B6F910BD0268546824F4E06454605F
:102AD0000268146844F400741460016380F83D30A7
:102AE00090F83E2080F83E10402AE9D100E002E054
:102AF000FEF7A0F910BD0068416821F480614160D3
:102B000010BDBDE8104000F0D3B8000078B590F8D3
:102B10003E50C26A036B90F83D6000240168222E8B
:102B20007AD1066D0EB9402D76D0056D1DB90569B7
:102B3000B5F5404F09D0458D05B3468D384D012E72
:102B40000ED0438D022B3AD05DE04A698A6900922B
:102B50000A6842F480720A60016D491C016578BD03
:102B6000AA4213D10A6822F480620A6001684A68A6
:102B7000120503D50A6822F4806216E04A698A6960
:102B800000920A6842F400720A6039E0082A10D004
:102B9000202A0ED0122B0AD0042A03D0022A01D0F8
:102BA000102AE7D10A6842F480620A6024E0012A10
:102BB000E0D00A6822F480620A600168DEE7042A35
:102BC00021D0022A1FD0102A1DD00B6823F4806365
:102BD0000B6001680B6843F400630B6001684B688D
:102BE0001B0509D5AA4212D0012A10D0082A0ED0FE
:102BF000102A0CD0202A0AD001684A6989690091FC
:102C0000046578BD08E00B6843F48063E5E74A6833
:102C100042F480524A60EFE7486988690090F0E723
:102C20000000FFFF90F83E10402910D00169B1F577
:102C3000804F19D0016DA9B3016D012910D1416CEC
:102C40005FF0F10201F4407142EAD11106E0016D3A
:102C50000029416C05D0C9B241F001010068016151
:102C6000704701F0FE01F9E790F83D102129416C11
:102C700009D0C9B241F0010102681161416B29B16B
:102C8000C96B49B902E001F0FE01F5E7816B00294B
:102C9000E6D0C96B0029E3D00068416841F40061C7
:102CA00041607047FFE7416CF02201F44071CBE7CF
:102CB000016DC1B1016D012923D0016D022911D12E
:102CC00090F83D10222923D090F83D10212909D1F8
:102CD000416A026809781161416A491C4162418D6B
:102CE000491E41857047C16C0129816C02D0C1F336
:102CF000072108E00268C9B21161016D891C0165F4
:102D00007047816CC9B202681161016D491CF6E718
:102D10000068016841F48071016070472DE9F0415D
:102D200090F83D40C26A002320261C4F01686FF4D2
:102D30008065082A01D0202A01D1282C04D0212C1A
:102D400016D04D61BDE8F081C7624A6822F4E062A6
:102D50004A6001684D6101680A6822F480620A6075
:102D6000036380F83D6080F83E30FEF75FF8E9E7E6
:102D7000C7622122026380F83D6080F83E304A68D5
:102D800022F4E0624A6001684D6101680A6822F439
:102D900080620A60FEF7CDF8D4E700000000FFFF74
:102DA000F8B590F83D6004460068416821F4E061A0
:102DB00041602068002541690091016841F00101EE
:102DC00001602068016821F4806101602068416829
:102DD000090520D5474F222E48D02A2E46D0616BB8
:102DE000096849686185618D19B1216C41F0040160
:102DF0002164416821F400614160606BFDF7CAFC09
:102E0000012808D0606B0765606BFDF7B1FC10B15D
:102E1000606B016D8847608D08B320684169C943C4
:102E2000490708D40069616A0870606A401C6062E2
:102E3000608D401E608520684169C943490608D4F9
:102E40000069616A0870606A401C6062608D401EA3
:102E50006085608D18B1206C40F004002064206C07
:102E600000B32046BDE8F840FFF74EBCA16B0968EF
:102E700049686185618D19B1216C41F004012164BB
:102E8000416821F400614160A06BFDF783FC0128DB
:102E9000C1D0A06B0765A06BFDF76AFC0028BAD013
:102EA000A06BB6E72A2E06D12563282084F83D00C2
:102EB0002046FEF73DF894F83D10202028290DD03B
:102EC000216B222901D0222E07D1256384F83D00F1
:102ED00084F83E502046FEF72BF8F8BD0649E16223
:102EE000256384F83D0084F83E502046FDF79EFFA0
:102EF000F8BD0000812600080000FFFF7FB5002418
:102F000016480094019402941349039401604FF40D
:102F1000803141604902046181600125057680F8B5
:102F200020400F49C0E90A14C561C46080F83040F0
:102F30004561FDF7B9FB08B1FDF76EFA0420CDE954
:102F40000005694602940548FDF768FA002801D09B
:102F5000FDF762FA7FBD0000002001401000002054
:102F60000100000F2DE9F04387B014216846FDF7FA
:102F700077F938480025016841F0040101600168D3
:102F800001F004010591016841F0800101600168D0
:102F900001F080010591016841F0010101600168C3
:102FA00001F001010591016841F002010160006832
:102FB000294F00F002004FF40054059000222146F2
:102FC0003846FDF7D5FCDFF8948000220321404607
:102FD000FDF7CEFC0122DFF8889016023146484604
:102FE000FDF7C6FC00940124694638460194CDE9FA
:102FF0000245FDF7F3FB0320CDE900040294694686
:1030000040460394FDF7EAFB44F20400CDE90005D5
:10301000694602944046FDF7E1FB20030090114809
:10302000CDE9010469464046FDF7D8FBCDE90064CF
:1030300069464846CDE90245FDF7D0FB002211461E
:103040002820FDF7DFFF2820FDF7CEFF07B0BDE801
:10305000F0830000303802400008024000040240C3
:1030600000000240000031100D4810B50B4901600E
:103070000C49416000214FF480428160C0E9031295
:1030800041618161C1610162FDF70CFE002803D03E
:10309000BDE81040FDF7C0B910BD0000005400406D
:1030A00058000020A08601000D4810B50B490160B2
:1030B0000C49416000214FF480428160C0E9031255
:1030C00041618161C1610162FDF7ECFD002803D01F
:1030D000BDE81040FDF7A0B910BD00000058004049
:1030E000AC000020A0860100104810B50E49016018
:1030F0004FF48271416000218160C1604FF4007221
:103100000161C0E905121822C0E90721416281620C
:103110000A21C162FEF7BAFD002803D0BDE81040C5
:10312000FDF77AB910BD0000003001400001002019
:103130000A4810B5084901605321416000218160AF
:10314000C16001618161FEF79BFE002803D0BDE8EC
:103150001040FDF761B910BD004801405802002041
:1031600010B596B000240F941094119412941394F7
:103170001C2108A81494FDF773F820216846FDF778
:103180006FF82A482849016040F24731C0E901142C
:1031900041F28731C0E903148021C0E90541FEF7FF
:1031A0006FFE08B1FDF738F94FF480500F900FA96A
:1031B0001E48FEF7BFFE08B1FDF72EF91B48FFF7CA
:1031C00028F908B1FDF728F9139413A917481494A6
:1031D000FEF718FE08B1FDF71FF9602008900120E6
:1031E000CDE909040B940C940D94002208A90F4812
:1031F0000E94FFF7A6F808B1FDF70EF900944FF40E
:103200000050CDE9044002940194039469460748B4
:103210000794FEF7CDFD08B1FDF7FEF80348FFF770
:103220004FF816B010BD000000000140580100200A
:1032300010B58EB000240794089409940A940B9456
:103240001C2168460C94FDF70BF82A484FF080418A
:1032500001605321C0E9011440F2E731C0E90314D1
:103260008461FEF70DFE08B1FDF7D6F84FF48050EB
:10327000079007A91F48FEF75DFE08B1FDF7CCF8DF
:103280001C48FFF7C6F808B1FDF7C6F80B940BA968
:1032900018480C94FEF7B6FD08B1FDF7BDF86020A4
:1032A000CDE9000402940022694612480494FFF715
:1032B00048F808B1FDF7B0F8042269460D48FFF759
:1032C00040F808B1FDF7A8F8082269460948FFF759
:1032D00038F808B1FDF7A0F80C2269460548FFF759
:1032E00030F808B1FDF798F80248FEF7E9FF0EB094
:1032F00010BD00009801002010B58CB02421684654
:10330000FCF7AEFF00241648099414490A940160A2
:103310005321C0E9011442F20F71C0E90314846122
:103320000320CDE900040120CDE902040494CDE995
:103330000540079469460A480894FEF766FE08B1FE
:10334000FDF76AF8099409A905480A94FEF75AFDA1
:10335000002801D0FDF760F80CB010BD000400405B
:10336000D801002010B58CB024216846FCF778FF06
:1033700000241648099414490A9401605321C0E9B5
:10338000011442F20F71C0E9031484610320CDE9F6
:1033900000040120CDE902040494CDE9054007941E
:1033A00069460A480894FEF730FE08B1FDF734F884
:1033B000099409A905480A94FEF724FD002801D0C4
:1033C000FDF72AF80CB010BD0008004018020020DC
:1033D0000C4810B50A4901604FF4E1314160002109
:1033E00081600C22C160C0E904128161C161FFF7F4
:1033F000BBF8002803D0BDE81040FDF70DB810BDA4
:1034000000100140980200200C4810B54FF0A04178
:1034100001600421416002220021C0E90321C0E9CA
:10342000062101624162C1620163FEF757F800287C
:1034300003D0BDE81040FCF7EFBF10BDD80200205C
:10344000FEE770470148FDF715BE0000D8020020D6
:103450002DE9F041044600680E46016C00EB46156C
:10346000D5F8080B276920234FF40042012F08D01C
:103470002C4FB9424FD1010449D500BFC5F8082BE4
:103480004DE0DFF8A4C05FEA007E04F5717711D546
:10349000614503D9000401D5C5F8082B2046FEF785
:1034A000D4F83A460121206800F0A6FC0820C5F8AF
:1034B000080B34E05FEA806E02D5C5F8083B2EE0C9
:1034C00010F0280F2BD1614501D90004D6D4C6EBEA
:1034D000C60004EB8000D5F8102BD0F80412C2F31C
:1034E00012028A1AC0F81422D0F808221144C0F837
:1034F0000812F1B22046FDF7BAFD86B9D4F81002E1
:1035000068B93A460121206800F076FC07E08006A1
:1035100001D5C5F8083BF1B22046FDF7A8FD002013
:10352000BDE8F0810A31544F0A30544F2DE9F84F6D
:103530000E46C1EBC60100EB810481460568D4E963
:1035400014103C34884202D90120BDE8F88F081AD3
:10355000A168814200D20846C01C870805EB4618C6
:103560001BE000BFA0EB010AA068504500D28246D4
:103570000AF10300870899F8100000901FFA8AF3F7
:10358000F2B22846E16800F05BFDE16801EB0A0059
:10359000E060A16901EB0A00A061D8F8180980B2C7
:1035A000B84205D3D4E90501814201D20028D9D11E
:1035B000D4E90501884208D806F00F0101208840AF
:1035C000D5F834188143C5F834180020BDE770479A
:1035D0000148FEF7DDBA00000001002010B5806B45
:1035E0000021C187C186FEF7D1FA10BD7047FDF7F3
:1035F000A1BC000030B593B030216846FCF730FE26
:1036000014210CA8FCF72CFE19480024016841F095
:1036100080510160006800F08050119015480168E9
:1036200021F4404141F4004101600068022500F4AA
:103630004040119001200090000401908001CDE9EC
:1036400006500420A821CDE908010A9007200B901C
:103650006846FEF7EDF80F20CDE90C05E802CDE94C
:103660000E4002210CA81094FDF7F2FF13B030BDFC
:1036700040380240007000400548016841F4700184
:10368000016003494FF00060803908607047000016
:1036900088ED00E010B50448FEF75FFDBDE810407E
:1036A0000248FEF75ABD00005801002058020020D1
:1036B0000148FEF752BD0000980100200148FEF7C6
:1036C0004CBD0000D8010020F0B502681D4B1E4C17
:1036D0009F031E4D1E4E984207D0B84205D0A0420F
:1036E00003D0A84201D0B04204D122F0700C4A6845
:1036F00042EA0C02984210D0B8420ED0A0420CD040
:10370000A8420AD0B04208D0124CA04205D0124CB8
:10371000A04202D0114CA04203D122F44074CA68E6
:1037200022434C6922F08002224302608A68C2620E
:103730000A688262984201D10969016301214161ED
:10374000F0BD0000000001400004004000080040FF
:10375000000C00400040014000440140004801408E
:1037600010B5846842EA032224F47F440A432243CA
:10377000826010BD826822F070020A4342F00701A5
:103780008160704730B5026A22F001020262026A6B
:103790004368846924F073050C682C4322F0020509
:1037A0008A682A430A4DA8420BD122F00805CA684C
:1037B00023F440732A434D6922F004021D438B69B0
:1037C0002B434360846149684163026230BD00005D
:1037D0000000014030B5026A22F010020262026A63
:1037E000436884690D6824F4E64444EA05248D683E
:1037F00022F0200242EA05120B4DA8420ED1CD68FC
:1038000022F0800242EA05124D6923F4406343EA44
:1038100085038D6922F0400243EA85034360846199
:1038200049688163026230BD0000014030B5026A20
:1038300022F480720262036A4268C46923F400734E
:1038400024F073050C682C438D6843EA05230C4D66
:10385000A8420ED1CD6823F4006343EA05234D69E5
:1038600022F4405242EA05128D6923F4806342EA51
:1038700005124260C4614968C163036230BD000043
:103880000000014030B5026A22F480520262046AEC
:103890004268C3690D6823F4E64343EA05238D6853
:1038A00024F4005444EA0534064DA84204D14D697D
:1038B00022F4804242EA85124260C3614968016491
:1038C000046230BD0000014010B5036A046A24F0B0
:1038D00001040462846924F0F00444EA021423F031
:1038E0000A020A438461026210BD10B5036A23F024
:1038F000100303628369046A23F4704343EA0232CB
:1039000024F0A00343EA01118261016210BD10B5E9
:10391000806B0021C185C184FEF79AFD10BD01684E
:10392000CA6822F49072CA6001684A6922F00102F2
:103930004A61202180F83A10704710B590F83A108B
:10394000222901D0022010BD8168B1F5805F11D01D
:103950000169002901681FD0496801F07F03816A6D
:103960004A1C82620B70C18D491E0904090CC18575
:1039700018D02BE00269816A002A0268526805D0DB
:10398000D2B20A80816A491C8162ECE7C2F3080264
:103990000A80816A891CF7E74A68816A4B1C836246
:1039A0000A70E0E70168CA6822F02002CA60016874
:1039B000CA6822F48072CA6001684A6922F0010272
:1039C0004A61202180F83A10FEF73EFE002010BD2B
:1039D0002DE9F041044600680169E26821F4405194
:1039E000114301612169A068E269084361691143DB
:1039F00008432168CA6849F20C639A430243CA60CB
:103A000020684169A26921F4407111434161E06974
:103A1000192764253226B0F5004F354A354920680C
:103A20004FF0000806D0884201D0904236D1FDF711
:103A3000BFFE35E0884201D0904202D1FDF7B8FECA
:103A400001E0FDF7A5FE61684A18A0FB070148EBFD
:103A50000803FCF7BBFB0146B0FBF5F00201B1FB2C
:103A6000F5F06FF01803584301EB800006EBC0003F
:103A7000B0FBF5F000F0F80002EB4002B1FBF5F00E
:103A8000584301EB800006EBC000B0FBF5F000F0FE
:103A90000700216810448860BDE8F081FDF778FEDA
:103AA00061688B0F8A00A0FB0701FCF78FFB0146C2
:103AB000B0FBF5F06FF01802504301EB800006EB0D
:103AC0000010B0FBF5F000F0F002B1FBF5F002EBF6
:103AD0000012B1FBF5F06FF01803584301EB8000C2
:103AE00006EB0010B0FBF5F000F00F00D1E700008E
:103AF000001401400010014090F83910212901D034
:103B0000022070478168B1F5805F016A0BD04A1CC2
:103B10000262026809785160C18C491E0904090CCF
:103B2000C1840ED017E009880268C1F30801516012
:103B300001690029016A02D0491C0162ECE7891C75
:103B4000FBE70168CA6822F08002CA600068C168A9
:103B500041F04001C1600020704700000148FEF7BD
:103B600079BC000098020020D0F800196FF30A0118
:103B7000C0F80019D0F80818C1F34101022905D195
:103B8000D0F8001941F00301C0F80019D0F804186A
:103B900041F48071C0F804180020704770B50446E5
:103BA00006990A9E049D0D98012916D0E06840F000
:103BB0004000E060204600F02BF8A16B1EB321F41A
:103BC0008031A163012D07D1A16841F00601A160F8
:103BD000A16841F02001A16070BDA16B21F480318A
:103BE000A163E168094A1140E160E16821F44011F4
:103BF000E160012803D1E06840F48010E0602046D5
:103C000000F006F8DEE741F48031DAE7BFFFBDFFE0
:103C100001220C4902E0521C8A420BD80369002B96
:103C2000F9DA026942F001020261012204E0521C49
:103C30008A4201D9032070470369DB07F7D10020CE
:103C400070470000400D030010B5D0F8041841F093
:103C50000201C0F804180320FCF7A0FD002010BDED
:103C60002DE9F04F0025DDE90BCB0E460446DDF8CB
:103C70004090099F2846294604EB8002C2F80411AF
:103C8000401C0F28F8D3B9F1000F204618D0006867
:103C900020F400122260A06B40F40022A2630846C8
:103CA0008846C4F8000ED4F800182046C4F800185E
:103CB000BCF1010F10D0D0F8001841F0030110E062
:103CC000806B40F40012A263A06B20F40022A26378
:103CD000A06B20F48022E1E7D0F800180BB141F08E
:103CE0000101C0F80018102100F0C2F800B1012550
:103CF000204600F0ADF800B101254046C4F8108818
:103D0000C4F81488C4F81C8800214FF000634FF0F9
:103D100090484FF67F3A14E004EB4112D2F800C904
:103D2000BCF1000F06DA11B1C2F8008904E0C4F852
:103D3000003901E0C2F80009C2F81009C2F808A968
:103D4000491C8E42E8D8002115E000BF04EB411267
:103D5000D2F800CBBCF1000F06DA11B1C2F8008B2B
:103D600004E0C4F8003B01E0C2F8000BC2F8100BFD
:103D7000C2F808AB491C8E42E8D8D4F8101821F4D8
:103D800080722146C4F81028012F08D1134AC1F8C7
:103D90003028D1F83018124A1143C4F83018A06105
:103DA0006FF0804060611FB9A06940F01000A06111
:103DB000A0690C490843A061BBF1000F03D0A069C2
:103DC00040F00800A061B9F1010F03D1A0690649D4
:103DD0000843A0612846BDE8F08F00000001800084
:103DE0000300010000383C8004000040816821F09D
:103DF000010181600020704710B5036C134CA34291
:103E000003D9D0F8003B002B1EDB0023C0F8103B89
:103E1000D0F8103B43F40023C0F8103BD0F8103B1F
:103E200043F01803C0F8103BD0F8103B43F0C043F8
:103E3000C0F8103B012907D1C0F8142BD0F8001BA3
:103E400041F08021C0F8001B002010BD0A30544F03
:103E5000002110220261054A491C914201D9032028
:103E600070470369DB06F7D400207047400D03005C
:103E70000022202343EA811101610549521C8A4234
:103E800001D90320704703699B06F7D400207047CF
:103E9000400D0300D0F8080810F0060004D00228F6
:103EA00003D0062801D00F207047022070474069D8
:103EB00000F001007047D0F81818D0F81C0808402E
:103EC00080B27047D0F81818D0F81C080840000CD1
:103ED000704710B5D0F81038D0F8342801F00F042E
:103EE00000EB4110E24002F00102D0F8080943EA79
:103EF000C212104010BD00EB4111D1F8081BD0F8E0
:103F00001408084070474169806908407047D21C16
:103F100010B59308002200F5805002E00468521C9E
:103F200010C19A42FAD3084610BD10B5C26822F0FB
:103F3000C042C260012902D029B1012010BDC16870
:103F400041F0005102E0C16841F08041C16032207F
:103F5000FCF724FC002010BD022A3ED1264A274B44
:103F60000A449A4201D20F2138E0254A254B0A44DF
:103F70009A4201D20E2131E0234A244B0A449A424C
:103F800001D20D212AE0224A224B0A449A4201D250
:103F90000C2123E0204A214B0A449A4201D20B21F2
:103FA0001CE01F4A1F4B0A449A4201D20A2115E025
:103FB0001D4A1E4B0A449A420FD31D4A1D4B0A4408
:103FC0009A4201D2082109E01B4A11441B4A91423E
:103FD00001D2072102E0062100E00921C26822F493
:103FE0007052C260C2684FF4705303EA81210A43E1
:103FF000C260002070470000405327FF00350C00CE
:10400000401E1BFF40420F0000DC0BFF804F1200E0
:10401000808CF9FE20D6130060B6E5FE60E3160042
:1040200000D3CEFE40771B00C05BB3FEC0912100E1
:1040300000CA91FE20753800E05459FEE09C410012
:1040400010B5029C64B9DB1C9C0800EB0230002315
:1040500000F5805002E004C902605B1CA342FAD361
:10406000002010BDFEE70907090E002804DB00F15F
:10407000E02080F80014704700F00F0000F1E0200D
:1040800080F8141D704702E008C8121F08C1002AFA
:10409000FAD170477047002001E001C1121F002AC9
:1040A000FBD17047FCF74EFFFFF7A4FAFEF75AFF6B
:1040B000FEF724FFFEF7D8FFFEF7F6FFFFF714F830
:1040C000FFF74EF8FFF7B4F8FFF716F9FFF74AF9D4
:1040D000FFF72EF8FFF77CF9FFF796F9FEE70000EF
:1040E00000000000000001020304060708090000A8
:1040F0000000010203040000184100080000002035
:104100001000000086400008284100081000002030
:10411000D00A0000964000080100000010000000D6
:08412000000000000024F4007F
:040000050800019559
:00000001FF
